:020000040800F2
:10000000F8F7012009400308A943030899430308AE
:1000100000000000000000000000000000000000E0
:10002000000000000000000000000000AB430308D7
:1000300000000000000000007144030815010020CA
:100040005102000851020008AD430308F9100308EB
:10005000510200088D0903089D090308AD09030832
:1000600051020008D5C10208E9C1020809C202080C
:1000700051020008CD430308D7430308DF430308B8
:10008000E9430308F9430308034403080D44030844
:1000900017440308214403082B44030851020008B5
:1000A000510200085102000851020008E901002035
:1000B000F30100200302002051020008054B064A0C
:1000C0000021DA61FE2259645200985A012800D1B9
:1000D00099527047B4020020F00200200122054B23
:1000E00080001950044B1A608022044B52055A605C
:1000F0007047C0465C0A0020600A002000ED00E066
:10010000FF235B00184202D10822014B5A6070475E
:10011000FCE100E00C4B10B51C680C4A01341C607B
:100120000B4B1B68012323409B009B58002B01D0E5
:1001300020009847074B1B68A34203D100200649C3
:10014000FFF7CCFF10BDC04674060020A8070020B2
:1001500010E000E0BC090020BDA50208204B5B3088
:1001600080001B1870B55C68002C28D020266568BC
:10017000EB699BB2E383334216D0618A00292BD00E
:10018000A08A013000F050F8E38A89B28B4223D074
:10019000A2896B6A1340A27A002A11D0114A126810
:1001A0009A420DD1FFF78AFF1823E28B6168134052
:1001B0000B62A38B134202D0206A00F03DF870BDA1
:1001C000E27AA069012A04D1A28A52001352A182C4
:1001D000EAE7A28A8354FAE72B68B3432B60E3E78C
:1001E000B40200204C02002010B50120FFF7B6FF3A
:1001F00010BD10B50220FFF7B1FF0820FFF7AEFFDA
:1002000010BD10B50320FFF7A9FF0420FFF7A6FFDC
:100210000520FFF7A3FF0620FFF7A0FF0720FFF749
:100220009DFF10BD0000000001B40248844601BCDF
:10023000604700BFF545030801B40248844601BC8D
:08024000604700BF55A502084C
:10025000FEE70000024B5A6912685A617047C046B7
:10026000B4020020C4600561466187614146C161F6
:100270004946016251464162594681626946C162FE
:100280007146816092E30000F7B58322920000235B
:10029000944662462B4D0326AF5800220132811846
:1002A0008C083C5D314049000C413440022CF5D0B3
:1002B000010186208000285812014018121801926E
:1002C000019A90420AD1002B3BD0013B1900153115
:1002D0001C4AFF31490052189088DAE70F22016862
:1002E000114228D18624174AA40014598C4222D8DE
:1002F0008725AD0055598D421DD9091B64461459F7
:100300000F09890965183E000095655C03212C00E2
:100310000E40760034410C40012C0CD1B1400D430D
:1003200000990D703F2B08D819001531FF31490095
:1003300051188F8001330430C2E78A21890054505C
:10034000F9E7F7BDB40200200200064B1168586AB5
:1003500043685B005B08994202D3C91A1160704779
:100360000068F5E7B4020020030000207F2B03D8CB
:10037000024AD05C8007C00F7047C046A8CE030871
:10038000030000207F2B03D8024AD05C0007C00F77
:100390007047C046A8CE0308030000207F2B03D877
:1003A000024AD05C4007C00F7047C046A8CE030881
:1003B000030000207F2B03D8024AD05CC006C00F88
:1003C0007047C046A8CE0308030000207F2B03D847
:1003D000024AD05C8006C00F7047C046A8CE030812
:1003E00010B50400FFF7E4FF4001001910BD10B57F
:1003F0000400FFF7E9FF1F2340429843001910BD96
:100400008368C268934203D25A1C8260187870478E
:1004100001204042FBE7000013B501690300012001
:10042000272901D0222905D116BD1A7D272A0FD1EF
:100430002000F9E70C00623C0020132CF4D8114A8C
:1004400022410124100020402242EED00020EBE7A0
:10045000222AEDD0722909D1662A0CD15B7D0120B8
:10046000272BE1D0223B58425841DDE7662905D1D0
:10047000722AD9D1F2E7622AD6D1EFE76229F7D002
:10048000D2E7C046EEFFF6FF0169F8B504000A297D
:100490001ED1012283690133836101270A26237D4E
:1004A000E2612361637D2375256E002D19D0A26D55
:1004B0006B1C2366555D626D934202D30023636516
:1004C0002366237D0D2B15D0002D17D06575F8BD43
:1004D000C3695A1C0929E0D10722073393435A1CE8
:1004E000DBE7A36860689847431CEAD0051EE8D1A3
:1004F0003D00E6E726750A2DD6D0E5E7237D002BE3
:10050000E4D00A2BE2D00A25E0E770B504000E0023
:100510002569002D01D1280070BD0A2D08D1002EBB
:1005200002D0636A002B1CD02000FFF7ADFFEFE77D
:100530002800FFF719FF0028F6D1232D08D120004D
:10054000FFF7A2FF2369002BE2D00A2BF7D1DFE7E8
:100550005C2DE1D1237D0A2BDED12000FFF794FF33
:10056000E2E73000D8E70000012270B50500030083
:100570001540104203D0100013430B6070BD0028DB
:10058000FCD006000324280026402342F6D15D68F3
:100590003000EDB23A2DF1D19B6810000B601900CC
:1005A00011401342EAD108002342E7D11968044BF5
:1005B00010009942E2D00348081A43425841DDE74F
:1005C000C4CD0308A0CD03080121020030B5050009
:1005D00008000D400A4211D103241000204022429D
:1005E0000DD00F2308001340062B07D028000A2B3C
:1005F00004D113090D3B9C426841C0B230BD002AB2
:10060000FCD05368DBB23A2B05D02D2BF6D1906885
:1006100043425841F1E70800F0E7000003000120E1
:10062000034201D0184370479A0711D00F211A09CD
:100630000B40062B03D10220D2001043F3E7130036
:100640000E3B0848022BEED8074A9B009858EAE771
:100650000648002BE7D05A68D2B23A2AE3D198680C
:10066000E1E7C04684CD03088CCD030898CD03088C
:1006700003694269013B03619B0098587047036915
:1006800042695B1A013B9B0098587047002906D0CD
:10069000032382680B40134301D10B6883607047CA
:1006A000036A1B8B012B02D0C3685918C1607047C5
:1006B00010B50400836A406A9B6F9847238B226AB7
:1006C00001339BB22383918C994200D2938410BD55
:1006D00010B50400038B013B0383836A406A08332F
:1006E000DB6F984701212000FFF7DAFF10BDF7B557
:1006F00007000C001E0000290DD003230D001D4033
:10070000194211D14B68D9B291420DD11B0A019304
:10071000019B9D4200DBF7BD2300AA00083338008F
:100720009958B0470135F3E721003800B047F2E7A8
:10073000F0B589B004000D0005920693002B03D09C
:100740000823CA8A1343CB823022059BEB83236A9A
:10075000D98A0A43DA821B78002B44D1A36A290084
:10076000B4331E68059A069B606AB04709B0F0BDB5
:10077000D26AF300D118D35C0791053B012B1FD837
:10078000002318E0049BEA6ADB00D018D35C062B38
:100790000FD1079B5968436899420AD1079B606A49
:1007A0005A88A36A1B691F000023B847039B0133C3
:1007B0000393049B013304932B8D049A9342E1DC51
:1007C0000136226A138DB342D2DC039B002BC5D0C5
:1007D000A36A069AB83300921E682900059B039A03
:1007E000606AB047C2E700260396EAE7F8B50F0053
:1007F00011001A00002304008578066983700361E4
:100800000F4BFFF774FF6368002B18D1618A002932
:100810000BD0228A002A08D1A36A606AA0331B6821
:100820009847A36A606A1B6C9847238A39002000A6
:10083000628AFFF77DFF6B1E9D412661A570F8BDA2
:100840006947000810B59D22024B8968FFF74FFFEA
:1008500010BDC0462548000810B56B22024B8968C0
:10086000FFF745FF10BDC046DB16000810B50400B9
:10087000836A002188331B68406A9847A36A606ACC
:100880000F211B6B9847A36A606ACC331B68012158
:10089000984703212000FFF703FF10BD70B5040047
:1008A000836A00225B6C406A9847A36A606AC0331F
:1008B0001D6800231A001900A8472000FFF7D6FF83
:1008C00070BD10B5836A896800221B6D406A0909F2
:1008D000984710BD10B5836A8968DB6B406A9847FA
:1008E00010BD10B50800110029F0C0FE10BD70B594
:1008F00005000C00FFF768FE002808D02800FFF76D
:100900008DFE0CF0D5F8001B43425841C0B270BDBB
:10091000F0B58DB0040068460E0017001D00FFF70B
:10092000A1FC002802D000200DB0F0BD20003A004C
:10093000310010F0E5FC0400FFF78CFCA30703D1A5
:10094000034B22689A42EED001202C60ECE7C046AF
:1009500028CD030810B542780B00012A03D1006AA4
:1009600007F0AEF810BD816A026A2031406A07F0D4
:10097000B7F8F7E710B542780B00012A03D1006AF7
:1009800007F09EF810BD816A026A1831406A07F0CC
:10099000A7F8F7E710B54923482232F047FD10BD0C
:1009A00010B54F234E2232F041FD10BD024B5A6963
:1009B0000260586100207047B4020020054A10B55B
:1009C000936919689161002802D018005A6890470D
:1009D00010BDC046B4020020F7B5862604000F25DE
:1009E000890043180193B600019B9C4200D1F7BDDA
:1009F00023682B4220D1114A915999421CD8872053
:100A000080001058984217D95B1A832189005258E8
:100A100018099B09D1188C46D25C010003231700EA
:100A2000194049000F411F40012F05D18B401A4347
:100A300063461A70FFF728FC0434D5E7B40200209F
:100A4000F0B58A2585B0AD0000234F4E74599C4205
:100A500027D189239B00F358DB08019385239B0052
:100A6000F358E5001F5D002F35D1019B0134A342EF
:100A7000F4D289239B0039003A009C460325019754
:100A80006346F3589A425BD96346019AF250882331
:100A900000229B00F250338901329343338105B029
:100AA000F0BD83271C007351BF0084239B00F358C3
:100AB0009B009C42C8D2F259A3080321D35C2200B8
:100AC0000A40520013410B408B4202D12000FFF735
:100AD000DBFB0134E9E701231F422ED08322920081
:100AE000B258AB080321D35C2A000A4052001341DC
:100AF0000B40012B21D186229200B0582B01C01847
:100B00000368002B0ED0214902AA0DF0A9FE029B1A
:100B1000002B07D00BF0AEFC0399029832F05CFC7E
:100B20000BF0BEFC85229200B158072201202A401A
:100B30009040EB08CA5C8243CA547F08013592E7B3
:100B40008320800030589308C718C35C10001C0035
:100B50002840400004412C40022C05D0032C0BD02F
:100B6000012C03D001328BE7002909D029008140F4
:100B70008B433B700121F5E7022181408B433B70A1
:100B800000210192EEE7C046B40200207503000088
:100B9000F7B587218624374B8900A4001C59595882
:100BA0000022091B0160832189005958140001911A
:100BB000842189005D580326110042608260C26072
:100BC000026142618261AD00019F8B08FB5C0F00F6
:100BD00037407F003B4147683340BC46012B33D050
:100BE000022B35D0002B04D184680132013484609B
:100BF0001C0001318D420AD0019F8B08FB5C0F0065
:100C000037407F003B4102273B4214D13340012C47
:100C100024D10769BC460127BC4467460761876940
:100C2000A74200D284618D4201D0012BCCD1C36890
:100C300093421CD300228D42C6D143681B014360FE
:100C400083681B018360F7BD3C0001344460CFE73B
:100C50000127BC44674601344760CAE7022CDED155
:100C60004769BC460127BC4467464761D7E7C26075
:100C7000E0E7C046B4020020F0B50F3085B00309AC
:100C80000291019303D10026300005B0F0BD524B14
:100C900019890029F7D1AB2292009A5A002A12D161
:100CA0000121842088234C4A800017589B00043877
:100CB000D35812580C259446302600229F420DD856
:100CC0000029E0D107E0AC22AD20920080009A58C4
:100CD0001B589A42E5D32FF07DFDE1E760460324DF
:100CE000C05C204246D1019C0132944243D89B0013
:100CF000991A4C1C012A05D1882637485D1CAD087D
:100D0000B60085518926344DB600A859984200D2C4
:100D100018000327A851012027407F00B8406746EC
:100D2000A608BF5D023138436746B8552A4803908C
:100D30008B4240D2862189006E5823019831019858
:100D4000F6186B5812011B186B503000002133F05D
:100D5000D1F9029B002B97D00023336085239B00A1
:100D6000E9580723E2081C40063BA340885C034384
:100D70008B5489E70022284206D1019C013294421B
:100D800003D89B000133B3E70022304206D1019C17
:100D90000132944203D89B000233A9E700223F2886
:100DA00006D801980132904203D89B0003339FE795
:100DB0000022013382E783260398B6008759032077
:100DC000022608404000864030008E08BE5D304359
:100DD0008E08B8550131ABE7B402002010B50021F0
:100DE0000400FFF749FF002804D1002C02D02000A6
:100DF0000CF068FD10BD0000F7B5050030200E00B6
:100E000017000193FFF7EAFF8223F3400400067006
:100E1000C760DB071BD5BB681B099BB2A3821020F0
:100E2000FFF7DCFF01238370019B206123830423F0
:100E30002020E384FFF7D2FF2B6AE0626360002387
:100E4000A360EB69002B05D1EC612000FEBD044BD3
:100E50009B5DE3E71A009B68002BFBD19460F4E7ED
:100E6000E4C7030870B51300427805000C00012A9E
:100E700004D10A000721FFF7BFFFA061A66928007F
:100E800031004623E268FFF7B1FCB08A70BD10B5AF
:100E9000036A04001A8BFFF7E5FF01002000FFF74B
:100EA00069FD10BD70B5437804000D00012B06D11B
:100EB000036A0A001B8B0221FFF79EFF2861AA68C4
:100EC00029694C232000FFF791FC70BD10B500216B
:100ED000FFF7D2FE10BD0000F0B51B490B89012BB6
:100EE00030D800282ED086239B00CB580124C01A6E
:100EF00085239B00CE580723020913409C40C50957
:100F0000735D8009A343735588239B00CC58A0428E
:100F100000D2C85083250320AD0013000700034012
:100F20005B009F404E599408335D0132BB433355FB
:100F30004C599308E35C14000440640023410340CF
:100F4000022BEAD0F0BDC046B4020020F0B587B055
:100F50000190019B08000592002B06D11900FFF7B4
:100F60008BFE0500280007B0F0BD002904D10198D0
:100F7000FFF7B2FF0025F5E74D4B1E899C46002E7A
:100F8000F8D1862362469B00D358019A0D00842134
:100F9000D31A62468900515883248A00049262461B
:100FA000A4001259012402930F351B092D09591C65
:100FB0000392049A914213D2039F8A08BA5C0327D2
:100FC0000F407F003A4103273A40022A02D1013400
:100FD0000131EEE7002A03D10136A219AA42F7D364
:100FE000AC420ED01ED959190A00E31803249A42C4
:100FF00009D188232E4A9B00D0588908814200D20B
:10100000D150019DAEE783266046B6008659100098
:1010100027002040400087409508705D0132B843AA
:101020007055E4E73619AE4224D35A19E3189342B7
:1010300010D389211E4889004358934200D21300DF
:101040004350019B2A1B200100211201181833F084
:1010500051F8D6E783266146B6008E590321022750
:10106000194049008F4039009808375C01333943F3
:101070003154DCE7059A002A00D17BE785216546DB
:10108000029A89006958D209895C072213401941E4
:1010900001231940FFF7F0FD051E00D162E7019919
:1010A000220132F0E7FF0198FFF716FF5AE7C0462A
:1010B000B402002010B501220C00FFF747FF002802
:1010C00004D1002C02D020000CF0FCFB10BDF8B5C0
:1010D0000F001D0001684368040016008B4208D30E
:1010E00010318068C900FFF7E5FF2368A060103366
:1010F00023606268A368511CD20061609B18196864
:101100003F02090E3F0A0906394319605D60DE702F
:10111000F8BD10B5CAB281690023496BFFF7D7FF4C
:1011200010BDC368026970B504000D009A4208D36F
:10113000103399004069FFF7BDFFE3686061103329
:10114000E36023696269591C9B0021619D5070BD59
:10115000F8B5446A06000D00002C16D063682268BA
:10116000CB18934222D90831891820000022FFF7BA
:10117000EDFE021E17D1616820000831FFF7E6FE80
:1011800063682360336A636034622F00802D00D26D
:10119000802738000830FFF721FE002307604360F6
:1011A0000400706202E023685B19236060684519DF
:1011B000656008342018F8BD70B50D000C211400CE
:1011C000FFF7C6FF9D235B0005604360846070BD30
:1011D000F7B50600140015000191002D11D129006A
:1011E000200014F00BFC0700002C14D13A000199E8
:1011F0003000FFF7E1FF01003000FFF792FF012010
:1012000008E0013D29003000FFF739FAFFF7DCF96B
:101210000028E2D1FEBD3000FFF72AFA0500FFF7F3
:10122000FDF93B00013CA20008339850002DDBD0B3
:1012300003231D42D8D1716A0B0008339D42D3D3DA
:101240004A689B189D42CFD26B681B0A02339B00F1
:10125000D21A4A60C8E7036810B5013B04000333A3
:1012600002D84068FFF738FE2000FFF735FE10BDBA
:1012700010B521240200411806488A4204D380B2E6
:10128000002800D1013010BD60431378013258406E
:10129000F3E7C04605150000F0B585B00290019156
:1012A000012000293ED00298FFF7E2FF1F4B039078
:1012B0005C6A002C01D1200034E0E668E379002567
:1012C000013E7F2B12D8771C26001836BD4213D35F
:1012D0002468EEE7AF197F08BB1D9B00019A1959DE
:1012E000029832F069FF002804DD3D00731B012BDA
:1012F000F0D8E8E73E00F9E723696A00D35A039A79
:101300009A4211D16369019A5B5D9A420CD1AB009C
:101310000299F05832F014FF002805D160684000AF
:101320004008401905B0F0BD0135CFE7B4020020F8
:10133000F0B585B003900191FFF7AEFF021E00D01B
:101340009EE0019BFF2B03D94F4950480BF082FDD3
:10135000F2254F4C6D00019B60595F1C002818D08E
:10136000F623F4265B00E3587600A159FB188B4264
:101370002DD97918FFF7EAFD0290029B6059002BE6
:1013800020D11A00ED33FF33E158FFF7DFFD029B58
:1013900063513E00802F00D280263000FFF796FD7B
:1013A000F2233B4D5B00E850002839D13800FFF7AD
:1013B0008DFDF2235B003E00E850002830D138005C
:1013C0000CF080FAA359DB19A3510028E1D0F622D2
:1013D0005200A3580399C518FB18A3502800019A7E
:1013E00032F048FE0023019A2800AB541100FFF7A9
:1013F0003FFF0700606AC3688668B3422FD3760058
:101400000A2E00D20A26072070431830FFF75EFD2F
:1014100000280CD1F2221E4B520098503000CFE72A
:10142000F42300225B00EE500433EA50CFE70300C0
:10143000B20018339B18720003619B184361636A02
:101440005A680360DB688660D21843685200DB0F7D
:101450005208DB07134343600023C36060620269E4
:1014600059008F5242690199D154626A991D8900CD
:101470008D50D1680131D160526852005208D218A3
:10148000100005B0F0BDC046AB3B040898D103087E
:10149000B402002010B5040032F066FE0100200006
:1014A000FFF746FF10BD0000F7B5856904002B006B
:1014B0003C331B780F0018000838042852D832F04B
:1014C000EBFF03222A374C00696CA86CFFF730FF52
:1014D0000600902F0FD1C3000221200000221943E3
:1014E00028300DF0BBF8002805D0426801200242E8
:1014F00019D0104302E002203601304301002000E1
:10150000FFF70FFEF7BD00222B00696CA86C09F0F5
:1015100097FF0200EAE7009500230122696CA86C9E
:101520000AF03CF902002000696BFFF745FEE5E791
:10153000696CA86C0A2907D8FFF7FAFE002806D0C4
:10154000030106201843D9E7FFF7A6FEF6E76A6C09
:10155000A96C064812F024FDE4E7696CA86C12F04F
:101560005BFDDFE70A201B01ECE7C04650CD030816
:1015700007B5019001A8FEF7E7FE019B02695B0039
:10158000985A0EBD07B5019001A8FEF7DDFE42692D
:10159000019BD05C0EBD07B5019001A8FEF7D4FEFB
:1015A000019B06339B0018580EBD13B5019001A88E
:1015B0000C00FEF7C9FE019B4269D25C06339B001A
:1015C0001858226016BDF0B58BB005000C0000AFB6
:1015D000002902D10121116018E0032319401C42A7
:1015E0001CD16368F961DBB2682B1CD1E3681B096D
:1015F0001360A4680123002CECD0FB610F2323406F
:10160000022B0DD1FB692109002BE4D0AB6A00222B
:10161000DB6A686A9847BD460BB0F0BD0023ECE773
:10162000FB69002B02D1A3681B09136026006368C5
:101630001B0AFB60013BBB61FB689B001B197B60C5
:10164000B06804360009FFF79DFFBB691B18BB613A
:101650007B689E42F4D16A46BB690733DB08DB0036
:10166000D31A9D46BB603B6100237B617B699A0076
:1016700023000833985824230009F918FFF795FF31
:101680007E6A01003200386932F0F4FC3B699E1931
:101690007B6901337B617A69FB68934204D0731CD8
:1016A0003B612E233370E1E7B969B868FFF740FE6C
:1016B000AB6A0100DB6A0022686A9847FB69002B6D
:1016C000A9D07B6804349C42A5D0A168AB6A0022F3
:1016D0001B6D686A09099847F3E737B504000D00E8
:1016E000836A00215B6B406A9847A36A606A1B6B40
:1016F0000F2198472900200001AAFFF764FF20006E
:101700000199FFF737F937BD8446F0B500206446EC
:10171000862587B02060314CAD0065590860019581
:101720008725AD006559106004958325AD001860CC
:10173000606A645903942A4C059400280ED11968F4
:1017400012688A181A6007B0F0BD1568277801354D
:10175000ED191560013410E0002439E0059CA04229
:10176000EDD064466546246801342C600C68C56879
:1017700064190C60C6684469A619B442E5D30F2405
:101780000F2504402842E7D1019DA84220D3049DA3
:10179000A8421DD2019D451B2E090296039EAD094C
:1017A000755D0326029F3E40760035410326354095
:1017B000012D0DD1029D0134039F2D19AE08BE5D90
:1017C00003273D406D002E413E40022EF2D0240101
:1017D0001D6800682D191D60AFE7C046B4020020E7
:1017E00050CF0308F0B5002220277F2401310B7869
:1017F000002B01D10370F0BD5BB2451C002B20DA39
:10180000002A02D02023037028000A78114B2240BE
:10181000002A0BD100269E5705001A780130002EB1
:101820000CDA22402A7001220131E0E700255D57E1
:101830000133002DFADA013AD2B2E9E701332A7016
:10184000E8E7012A01D1077028000B780222037013
:101850000130E9E7B33B040870B50400081E00D16D
:101860000130002565602060FFF7B8FA2573A0609D
:1018700070BD70B50D0004000131FFF7EDFF65602C
:1018800070BD10B5037B0400002B02D18068FFF708
:1018900023FB0023A36010BD10B5041E14D0C36841
:1018A0004068984720004030FFF7EBFF20005030A1
:1018B000FFF7E7FF20006430FFF7E3FF206BFFF73F
:1018C0000BFB2000FFF708FB10BD70B51500426848
:1018D00004000B008A4203D949198A4201D8636087
:1018E00070BD8068521A4118C01832F0EFFB63686F
:1018F0005B1BF4E7002110B501480BF0ABFAC046C2
:1019000098D103080168436810B5040099420CD1CE
:10191000037B002B01D0FFF7EDFF80680131FFF75B
:10192000C9FB2368A060013323600021A2686368BB
:10193000D154A06810BD70B5446803680C19050047
:101940009C420ED9037B002B01D0FFF7D3FF072366
:1019500010349C43083421008068FFF7ABFB2C60F7
:10196000A86070BD70B504000D00FFF7E4FF636868
:10197000A068C0185B19636070BD10B50C00012130
:10198000FFF7F0FF047010BDF7B50C00CDB27F2952
:1019900004D80121FFF7E6FF0570F7BD3F27802639
:1019A0008B09DBB2019380233D4076423543EDB293
:1019B0001B01994209D20221FFF7D4FF4023019A6B
:1019C0005B42134303704570E7E70B0BDBB20093F8
:1019D000019B3B403343DBB2019380235B0299427E
:1019E0000BD20321FFF7BEFF2023009A5B42134373
:1019F0000370019B85704370CFE70421FFF7B2FFAE
:101A00001023A40C5B4223430370009BC5703B4032
:101A10001E43019B46708370BFE770B5040015003C
:101A20000E001100FFF787FF6368A0682A003100ED
:101A3000C01832F04BFB63685B19636070BD70B512
:101A4000050008000C0032F08FFB21000200280086
:101A5000FFF7E3FF70BDF8B54768040016003D00CE
:101A60008F4200D90D0031002000FFF764FFA0680D
:101A7000AB197A1B4119C01832F028FB6368A068C3
:101A80009B1940196360F8BD70B5050008000E0091
:101A900032F06AFB041E04D0020031006B68286833
:101AA0009847200070BD0000F0B587B01E000CAB59
:101AB0000D9D1B78059103921900AC1A2022070096
:101AC00091435AD00CAA029201220192302B1BD1D1
:101AD000730ADBB2002B55D05F2B4AD12E4B0293F9
:101AE000052301932800019932F084FD002901D1DA
:101AF000013401352800019932F07CFD019B5D1E07
:101B0000029B6D1A5B19029320231E423CD0E30F07
:101B10001B195B10E51A1C00002C3BDD2600019B05
:101B20000493B34200DD04967B68049A02993868F6
:101B30009847049BF61A002EF1DC039B002B06D07D
:101B40007B68039A059938689847039BE418002D31
:101B50000CDD6419019EAE4200DD2E0032007B6870
:101B6000029938689847AD1B002DF3DC200007B0C0
:101B7000F0BD0A4B02930423B3E7094B02931023F1
:101B80000193C1E7074BF9E7012335001D401E42D1
:101B9000C2D025000024D0E744CF030849CF030872
:101BA00028CF030838CF0308F0B5A9B00F932EABA8
:101BB0001B7815001D930F9B2B24309F1B900991C0
:101BC0009B0704D40F9B5C07E40F6401E4B2099BFC
:101BD000002B00DB81E00999081C33F0F3FB00289F
:101BE00000D07AE08022120694462D24099B63449B
:101BF00009931D261FAB1C7018ABF6182023202458
:101C00000793099B8F495B005B08089308982C4059
:101C100033F0D8FB002866D18A49089832F012FDCB
:101C2000002860D149214E22462321432243F01C43
:101C30002343B37000231FAC31707270041B037018
:101C40000F9B1FADDB0518D52E21280032F0D2FAEC
:101C5000002812D16521280032F0CCFA00280CD1DE
:101C60006E21280032F0C6FA002806D12E22631C0D
:101C70002A5502340232EA5428550F9B5B0605D5DB
:101C80002522631C2A5500221C00EA5410220F9DB5
:101C90000F981FAB19001540104212D01A7800257A
:101CA0002F2A0ED801222B0000951B980192FFF7D6
:101CB000FBFE1D2105002F9B013C013B2F9318AB20
:101CC000C9182F9B220001931D9B1B9800930F9B0B
:101CD000FFF7EAFE281829B0F0BD002C00D088E7F5
:101CE00021231FAE8BE70999081C33F06BFB0028FA
:101CF00006D04E234122234319002243F01C98E7CB
:101D000020232B43662B48D1623B23430A93079B36
:101D1000DC1E002F47DA06271394BC4200DD139720
:101D20000025099B1193AB4225D05800000E7F3847
:101D300033F07AFB444933F0CBF833F057FBFE2302
:101D40000021119A9B059A4249410500CBB209181E
:101D5000FE208005089309F059FC089B011C002B0C
:101D600027D001230B93099832F080FC431E984141
:101D7000089B984220D004230A9A1A4247D0002D8B
:101D800024DDEA19079902328A421FDD0A9A53407C
:101D900002221A430A9201373EE0672B01D1653BCC
:101DA000B3E70123B1E7632FB6D1102309271393BB
:101DB000B6E701235B42D5E7FE200B9B8005ED18BB
:101DC000089BE91809F022FC011CCCE7079B023BA9
:101DD0009F4200DB3BE1002D00DB3CE1022F0CDDEC
:101DE000AB1C10DA6B42BB4200DD3B00023B0893A8
:101DF000FF1A092F18DC002203E000231A00013724
:101E0000089304231AE0013700230893F1E70A9BA3
:101E10009B07C0D5002F19D000230893092F03DC9E
:101E20001A000C93073316E004233A000A99092795
:101E300019400C910A99093A19420BD00C93013BB5
:101E400009E0C046FFFF7F7F9B209A3E3A0008973B
:101E50000C97012707230799C91BCB1A17939342A5
:101E600000DD17920797062F01DD06230793079BD6
:101E70005B1B013B1693179B079AFB189B1A189341
:101E8000119B0D96191E0E930ED00C9B16990E9356
:101E9000002B09D00E95002D06DA089B002B00D0F0
:101EA00095E0089B511E0E930A2201231292079A75
:101EB0009A4200DD9CE00124062A09DDA14207DDEB
:101EC000072A00D19AE0022900D197E00239633451
:101ED000099809F09BFBFC21890532F0F9FC32F0EE
:101EE00053FC0A9B444305930E9B32000393189BBB
:101EF00012990293139B20000193079B0495009372
:101F00000D9B09F0B5F91EAA01001490300009F0EC
:101F1000B1FB09991E9833F0D3F80B900B9B002B63
:101F200050D001231093079B062B06DD0323079A4D
:101F300053430122123B9A4010920B9B1594199324
:101F40000C231A930B9B002B5BDA109BE4180A9B63
:101F5000320005930E9B12990393189B2000029365
:101F6000139B04950193079B00930D9B09F080F947
:101F70001EAA01001490300009F07CFB09991E98FC
:101F800033F09EF80B900B9B002B1BD05800199B35
:101F900040085900490833F093F81C901C9B002B13
:101FA00032DB0A21200032F0D1FA1C9B19432BD0DE
:101FB000109B012B2CD05B0810931A9B013B1A93AA
:101FC000002BBFD1149BF4181FABE41A38E6302164
:101FD0002E23B41C089A31707370200032F08AF8F6
:101FE000089B089AE3180D93079B9918FF235AE75B
:101FF0000A20129A01334243129258E70A24013907
:1020000066E7109BE41AA2E70B9B15941993CFE7A0
:10201000169B01331693079BBB4202DA01330793E9
:1020200029E7159B9C42CDD00A9B320005930E9B5D
:1020300012990393189B15980293139B049501938F
:10204000079B00930D9B09F013F91490BAE7270042
:10205000002D00DAC4E66B1CFF18D5E60023F0B5AE
:10206000140093B0089006930D002B78002B01D03C
:10207000252B39D1A9420AD2089B08986E1A5B68B1
:102080003200006898472900069B9B1906930B783D
:10209000002B00D16FE12023099300234F1C0593EF
:1020A0003B78002B07D02D2B28D01FD8202B30D0E9
:1020B0002B2B29D000230A2107933B781A00303AB2
:1020C000092A28D92E2B4ED17B782A2B2AD00026FC
:1020D0000A2201373B7819003039092924D85643A0
:1020E000F618303E0137F5E70135BEE7302BE1D178
:1020F0001022059909931143059103E00122059BE4
:10210000134305930137CBE70223059A1A4305923F
:10211000F8E70423F9E7079A01374A43D318303B1D
:102120000793CAE740CC0237F343DB171E403B78E6
:102130006C3B5A425341FF183D78002D00D11AE103
:10214000782D06D8572D11D8472D36D8442D00D9D3
:10215000FFE0089B08985B680122390000689847F7
:10216000069B013364E001267642E0E728005838F8
:102170002028EED832F09AF92300EDFFEDFFEDFFB5
:10218000EDFFEDFFEDFFEDFFEDFFEDFF4D00670013
:102190002300ED00ED00ED00EDFFEDFFEDFFEDFFA5
:1021A000EDFFEDFFEDFFEDFF23007100EDFF83007C
:1021B000EDFF2300EDFFEDFF2300502DC9D12B00D3
:1021C000202104CC8B430A92502B69D1642D6BD112
:1021D000002A00DBA4E02D2308A9CB7553420A9303
:1021E0000A2651230A3B12AD0B930A98310032F0B4
:1021F000ADF90B000A9A30330A90092901D90B9BDB
:102200005B18013D2B700EAB9D425DD09642ECD920
:102210005AE008CC002B0ED00422079B57490193AB
:10222000099B0093059B0898FFF73EFC069B1B1833
:102230000693791C18E7079B05220193099B5049D7
:102240000093059BEFE708CC0EA90B70079B0122BA
:102250000193099B0093059BE5E70EA901CCFFF7CD
:10226000A4F90100731C03D00E9B9E4200D20E966F
:10227000079B0E9A0193099B0093059BD3E720CC03
:10228000280031F071FF0200731C02D0B04200D967
:102290003200079B29000193099B0093059BC2E72D
:1022A000642D95D0752D35D00F23002110269D4328
:1022B0000F3D08A8EBB2C175002A93D1272108AAC7
:1022C00052183023150013701721102208AB059EF9
:1022D0000598C9180B781640104232D00026B34238
:1022E0000BD0099B0F3A0093019203000898FFF767
:1022F000DBFB0600079B013B079312AB5A1B079BB6
:1023000029000193099B08980093059BFFF7CCFBDC
:1023100080198BE7002308A9CB750A266133CBE728
:10232000059B9B0707D52B23172108A809180B70BD
:102330000A265123C0E7059B5B07DB0F5B01DBB27D
:10234000F2E7002BD9D00EAA9542D6D9013D2B70C9
:10235000D3E7072307349C4303CC33F051F9079BA1
:10236000011C0193099B2A0000930898059B029683
:10237000FFF71AFC5AE7069813B0F0BDC03E0408F8
:10238000C53E04080EB403B503AA02CA0192FFF7C2
:1023900065FE02B008BC03B018470300002210B568
:1023A0009A560078002A0BDA7F2210403F3A024208
:1023B00007D13F2101331A7814008C43802C03D0BD
:1023C00010BD90435208F2E780010A4001331043E8
:1023D000F1E7030030B541183F2400208B4200D3C1
:1023E00030BD1A780133A243803A551EAA418018A5
:1023F000F4E70000030000207F2B03D8024AD05CE2
:102400004006C00F7047C046A8CE03080023F0B5B1
:102410000700012187B04364FEF777F8BB69396A8A
:102420007B63FB690400BB63002907DA3B000722DA
:102430003C331A700131396207B0F0BD002905D074
:102440003B0006223C331A700139F4E7002833D0F0
:102450003800FEF75AF8390005233C310B70FB6A4F
:10246000C34A386B9A18FC695200125A013C9442D4
:10247000E2D008D8013B5A00825A944217D3DBD0ED
:1024800002230B70D8E7B96A8B4207D308314900A1
:10249000FEF710FEBB6A38630833BB62FB6A5A1C46
:1024A0005B00FA621C523B6A01333B62C4E73A6A42
:1024B000FB62013A3A62DDE73E69002E02D13C3709
:1024C0003E70B9E73800FDF7A7FF0390002800D160
:1024D000F1E13B003C331C703C69722C6CD008D895
:1024E000622C0ED0662C72D00024019402940B232F
:1024F0000FE0753C63425C410023019302930B3370
:1025000007E03B7D722B6BD00023012401930293E3
:102510000C3339003C310A78002A6DD10B70002C45
:1025200007D03800FDF7B0FF022C02D13800FDF7CC
:10253000ABFF3B690493222B01D02723049338007F
:10254000FDF7A2FF01223B690592049A93420AD14A
:102550003B7D934207D13800FDF796FF3800FDF729
:1025600093FF03230593019B002B07D0BB6E002B29
:1025700004D138007F496430FFF761FA00253C69D7
:10258000002C00D18BE1059B012B02D10A2C00D13C
:1025900085E1059B9D4266D37A6C0023954200D865
:1025A000531B012138007B64FDF7AFFF3800FDF7B6
:1025B00033FF002890D121E03B7D622B10D0662BA9
:1025C00015D000230193039B012402938FE73B7DE9
:1025D000722B0CD0039B01240193002302938EE7FE
:1025E00000230193039B022402930C2391E7039B96
:1025F0000224019302937AE79A4290D0BB6E002B9B
:1026000000D119E738003C0029216430FFF7B5F903
:102610003B6E5034002B00D04AE103212000FFF72D
:10262000A1F93B6903703B7D43707B7D8370BD6E78
:10263000FE6E2A00396E2000FFF70DFA2A003100E5
:1026400031F018FD0023BB663B6EBA6D581C38662E
:10265000D15C3961991C3966105C033338753B666F
:10266000535C7B75E8E6049BA34209D1380019004E
:1026700040300135FFF788F93800FDF705FF7EE7A8
:10268000019B002B5ED15C2C00D002E13800FDF7ED
:10269000FBFE029B3D69002B6ED038005C21403070
:1026A000FFF772F92C00BBE03D00002464352821BF
:1026B0002800FFF762F9BE6E3969002910D0002C9E
:1026C0002DD13A290CD07D290AD0212927D13B7D53
:1026D000723B012B29D87B7D3A2B01D07D2B24D155
:1026E000F96EBA6E8B18013B1B783D2B08D1380070
:1026F000921B89194030FFF790F9BA6E013ABA6619
:10270000B24203D13B0004223C331A702800292135
:10271000FFF733F92C212800FFF72FF922E00B00F7
:10272000202293435B2B08D101342800C9B2FFF764
:1027300024F93800FDF7A8FEBEE75D3B5A4253413D
:10274000E41AF2E77B2C9ED13800FDF79DFE3B6931
:102750007B2BA9D1380021004030FFF70EF938005B
:10276000FDF792FE38007B214030FFF706F905E7C0
:10277000FFFFFF7F103F0408782D8ED85B2D06D811
:10278000222D44D024D80A2D87D1002574E72800B3
:102790005C381C2862D831F07FFE3A616161617655
:1027A000266161612E616161616161612A616161BE
:1027B0000F6128302C614C000D243B003C331B780A
:1027C0000B2B62D1380021004030FFF7DDF8DCE749
:1027D000552D12D000D960E7272D18D04E2D3DD1B0
:1027E000B5480BF007FA0824E7E70924E5E70A24CF
:1027F000E3E70B24E1E70C24DFE73B003C331B78E5
:102800000C2B06D138005C214030FFF7BDF82C00BE
:10281000D3E70826752D00D1043E0024013E0AD2DC
:1028200088235B039C42C8D33B0001223C331A70CF
:10283000ABE70226F1E73800FDF726FE3D692800E8
:10284000FFF7D8FD002800D172E1303D2401092DA9
:1028500002D920239D43073D6419DFE72C00303C5B
:102860000326072C00D918E73B7D303B072BD7D830
:10287000013E002ED4D03800FDF706FE3B69E4008F
:10288000303B1C19F0E7072497E7FF2CCCD80C2B22
:10289000CAD13800E1B24030FFF76FF875E7059B09
:1028A0009D4200D378E63B0003223C331A7073E666
:1028B000033B3B66BBE63000FDF762FD002814D108
:1028C0005F2E12D07F2E10D83000FDF765FD002856
:1028D0004DD100252E2E04D1387DFDF75DFD051E5E
:1028E00047D1764B01930223B3E03D0008233C001F
:1028F0003C352B704034F1B22000FFF73EF8380031
:10290000FDF7C2FD3E69002E0DD03000FDF738FD09
:102910000028F0D15F2EEED07F2EECD83000FDF7EE
:102920003BFD0028E7D12000FEF7ECFF0024060065
:10293000634FA3003000F95831F024FC00280FD178
:102940000E34E4B22C70112C00D075E5F8225D4BEA
:1029500052009A580E23002A00D102332B706BE5E7
:10296000002800DA68E50134242CE2D164E52E2E3B
:1029700032D13B000A223C331A70002301933D0000
:10298000403531002800FEF7FFFF3800FDF77CFDE1
:102990000A263C69002C00D14EE5019B002B32D168
:1029A000230020229343452B2DD13B003C3365214E
:1029B0001E702800FEF7E8FF3800FDF765FD396955
:1029C00002220B002B3B9343E3D12800FEF7DCFFF0
:1029D0003800FDF759FDDCE73B0009223C331A7053
:1029E000302ECAD120233A7D1343623BDBB2162B33
:1029F000C3D8354ADA401300012219001140019171
:102A00001342BCD1B9E72000FDF7BAFC00280AD177
:102A10002000FDF7C1FC002805D12E2C0CD13B0075
:102A20003C331E7006E02E2CF9D023002022934365
:102A30004A2BF4D02100C8E75F2CC9D0FCE4633CEA
:102A40009C43E4B262425441019A013512190132A9
:102A50000192019A1478002C01D0A642EFD13800DF
:102A6000FDF712FD002C03D101223C373A70E3E45C
:102A7000212C08D13B693D2BF6D13800FDF704FD30
:102A80003C373922F2E7019E2A0001362E2C29D14B
:102A90003C003B693C342E2B02D13B7D2E2B02D0D7
:102AA0005C232370C8E43800FDF7EEFC3800FDF726
:102AB000EBFC0D23F5E7C046193F0408CB3E0408A4
:102AC00018CE0308B4020020012040007378396951
:102AD000013599420FD13800FDF7D6FC2A00652C4C
:102AE0000BD00236347802212300633B8B43DBB2E8
:102AF000002B02D1EAE7632CF3D1104B9B5C3A0028
:102B00003C321370543BDBB2052B00D994E4012214
:102B10009A4013002A22134207D1153A134200D1DA
:102B20008AE47B6A01337B6286E47B6A013BFAE7D5
:102B30003B0001223C3304001A703EE6ECCD030852
:102B4000F0B50200411806240020E52503263F27A2
:102B50008A4203D343425841C0B216E0137800289A
:102B600006D0BB43802B11D10138C0B20132EFE750
:102B7000BF2B07D9F72B08D82800DB0823401841C2
:102B80003040F3E75BB2002BF0DAF0BD0020FCE749
:102B90000239814202D30B88002BF9D00231081A86
:102BA0004010704730B504000120994213D307D874
:102BB0004B00E418D21802235B42002901D108001F
:102BC00030BDE05AD55A401B04D4023B002804D142
:102BD0000139F2E701204042F2E70120F0E7F0B5C9
:102BE00004001D090020954217D20F3003406800F1
:102BF0000918501B05002600012D0FD10A88DA4064
:102C0000013D328002310236002DF5D14300E41837
:102C1000023C23885A425341C01AF0BD4A880F88AB
:102C200012043A43EBE78C46F7B508996746521A07
:102C300001920D0006000022002D14D1089B65466C
:102C4000590063465C1843180199461BA5190029D1
:102C500014D101994900C918002A01D00A80023113
:102C6000081A4010FEBD3C881988013D6418A2185E
:102C700032800237120C02360233DDE72788013931
:102C8000BA182A800234120CE0E7F7B5089C0F004E
:102C9000121B01922500060000220093002D0DD189
:102CA0006400019D0B190419411A5E18002D14D1FE
:102CB000019B59000919FFF76BFFFEBD3B88013DE1
:102CC0009C46009B62441B880237D21A009B3280CC
:102CD0000233121402360093E0E71F88013DBA1850
:102CE000328002331214E0E7F7B516000700089CA3
:102CF0009C46A41A0A9B0194002E0AD1099B5100FC
:102D00004118002B02D001230B800231FFF740FF56
:102D1000FEBD0D88104C013E2D19ED18019B9B192D
:102D20009E4216D363461B881B190224A4440B9CA5
:102D300002311B192C0000935C40099BA4B2E418DB
:102D4000009B3C801B0C240C0B9309942B0C02372A
:102D5000D2E7014BEBE7C046FFFF0000037810B558
:102D60009B0702D48068FEF7B7F810BD10B5041EAB
:102D700005D08068FEF7B0F82000FEF7ADF810BD72
:102D800070B505000C00022900D20224A8680028B2
:102D900003D02B689B08A34209D26100FEF78AF991
:102DA00003222B68A40013402343A8602B6070BD4E
:102DB00070B504000C20FEF711F805002378206898
:102DC000DB0780088200DB0F13432B606368400041
:102DD0006B60FEF703F8A8602268A16892085200B1
:102DE00031F048F9280070BD70B504000D00496845
:102DF000FFF7C6FF01212A7823780A408B4313434B
:102E000023706A68A06862608A40A96831F032F96C
:102E100070BDF0B50D004B6885B057680393060090
:102E200014003B0092680399A868FFF7BBFE0130CD
:102E300003D023002C001D00039F23782A785340E1
:102E4000DB0717D43000791CFFF79AFF6B680093FB
:102E5000AB686268A168B068FFF7E5FE70600121A9
:102E6000431E98412278337802408B4313433370DA
:102E700005B0F0BD39003000FFF782FF6B680093AA
:102E8000AB686268A168B068FFF7FFFEE6E7F0B5DF
:102E90004B6804000E00150089B0002B02D0536867
:102EA000002B07D101222378934323700023636012
:102EB00009B0F0BD814237D10800FFF779FF060065
:102EC0000700A54239D06B6871682000C918FFF768
:102ED00057FF2268002192085200A06831F00AF9D9
:102EE000A3680393B368069373680493AB68019374
:102EF0006B689C46049B5B000593059A039B9A189C
:102F0000002360460599511A00283FD101216360D2
:102F10002B78327838005A4023780A408B43134389
:102F20002370FFF723FFC3E700278242CBD11000B5
:102F3000FFF73EFF05000700C5E70500C3E7088867
:102F4000C3180793009B1B881800019B1B884343F1
:102F500007981B1802980B800138029000981B0CF0
:102F600002300090023102980028E8D11100002BB5
:102F700001D01380911C039B0232CB1A01214942DC
:102F80008C4401995B1002310191BAE7069B0093D2
:102F9000049B02930023E6E7816843680200002057
:102FA00010B55B00CB18994204D31378DB0700D52A
:102FB000404210BD023B1C8800042043F3E770B57B
:102FC00080250023426884685200A2182D02944292
:102FD00006D30278D20700D55B4201200B6070BD9A
:102FE000AB4204D2023A16881B043343EFE70020B9
:102FF000F5E7F8B5866844680500002064003419D8
:10300000A64206D32B78DB0702D580231B06C01807
:10301000F8BD8F21C90531F05BFF023C071C2088F9
:1030200032F002FA391C31F053FCE9E770B50D00BB
:1030300002210400FFF7A4FE002101202B008D4295
:1030400001DA01006B42227882430A430121227097
:10305000A26898B215000E0010801B0C01310232DC
:10306000002BF6D16660288070BD0000F0B504002A
:10307000012700260D00516893B001310592069397
:10308000FFF77EFE059B00215A68A06801325200BE
:1030900031F030F823786660BB432370059B28002D
:1030A0005968C919FFF76CFE28000599FFF79CFEC7
:1030B000AB680293069B02989B680393069B039A56
:1030C0005B680493A36807936B6808930899049B53
:1030D000FFF768FDB04231D1079B68601F806760D1
:1030E0006A682B781000411E8841012118408B43EB
:1030F00003432B700698059B00781B7843400B42D6
:103100001AD06068431E984123788B430343237091
:10311000002A11D0002302390FA80F9310931193A6
:10312000FFF784FF210020000FAAFFF772FE29009D
:103130002800069AFFF76DFE13B0F0BD013001D1F3
:103140006660CDE7754A049B00969B185B009C4621
:103150006246039B63440993039B9B5A1AB2002A5D
:1031600062DA00201027089B02995A00029B9B18E4
:1031700002328A1818800193089B0892009A013342
:10318000BA1A6B600A92089A914254D3099A00992C
:1031900012888A400892049A012A0AD91021039AB7
:1031A00000986244023A1288091ACA4008991143E9
:1031B0000891049A9B1A594A63609B18079A5B000E
:1031C000D3180993634602330D936B680A930A9AE6
:1031D000049B93423AD31300504A10219446002690
:1031E000029A63445B00D318009A891A029A9A42A1
:1031F00000D886E06368002B07D0484A07999A18E0
:103200005200525A002A00D185E06B68002B00D191
:1032100066E7424A02999A185200525A002A00D090
:103220005EE7013B6B60F0E7009A5B00013292B20F
:103230009BB2009292E70E88009F3200BA40104382
:103240000A9A0880D6400231B0B29CE7019B0899E7
:103250001888023B1B880004184331F03BF90D9A93
:10326000019B84469B1A002218001600039F0B93B3
:10327000019B83420FD81B889A18002A3CD16246D2
:10328000099B1A80023B0993019B023B01930A9B15
:10329000013B6B6099E73B880099360C8B40614697
:1032A0001E43B3B259430C9191B20B000188121422
:1032B00059186B461B8E0237C91A0C9B01801B0CD8
:1032C000D21A091452180230D2E7000C37880C9039
:1032D0000098023687400C9838430F88FF1883B255
:1032E000DB190B801B0C0231019F8F42EDD8D218E5
:1032F00001235B429C44C0E700230B991800039E06
:10330000F2E71A88009F100038418A403043188045
:1033100096B2023B6AE7013B63606BE7FFFFFF7F0A
:103320007FB506007420019102920393FDF756FDCC
:10333000030001AD40C3040007CD07C302220025EE
:1033400001235242E2610C32A262A361E3621420C3
:1033500025626562FDF742FD206320002021403098
:10336000FEF77AFA200029005030FEF775FA2000A7
:10337000290064302566FEF76FFA236B20001D805C
:103380002561A582FDF780F82000FDF77DF820007B
:10339000FDF77AF82000FFF739F8A36B012B06D070
:1033A00023003C331A78052A01D006221A70200027
:1033B00004B070BD30B5040085B001AD0100280037
:1033C0001FF0E2FB20000199029A039BFFF7A8FF80
:1033D00005B030BD10B50C00FDF7C6F800239842CB
:1033E0000DD022680133110019401A4207D10B0099
:1033F000910704D11368034A9B1A5A42534118009B
:1034000010BDC046C4CD03080300006830B50028D5
:103410000AD084070AD14468E5B28D4206D1030080
:10342000200A0833136030BD0300FBE70120F9E7F1
:1034300030B500220400058D954201D8002030BD32
:10344000E36AD000181843688B42F8D00132F3E7E2
:1034500070B504000D001600FFF7EAFF002817D131
:10346000E18C238D8B4208D30631E06AC900FDF759
:1034700021FEE38CE0620633E384238DE06A5A1C6C
:10348000DB00C0180023228506704370438045602E
:1034900070BD10B542780B00012A03D1006AFFF716
:1034A000D7FF10BD816A026A1031406A04F018FB30
:1034B000F7E7000070B505000C1E1AD0CB0705D544
:1034C000836A49105B6B686A984712E08B0714D0D7
:1034D0000F2309092340022B09D0062B0AD0052906
:1034E00007D0836AC9B21B6B406A984701E0FFF7B7
:1034F000D0FF70BD836A9B6BE5E7836A0968DB6870
:10350000406A98476368034ADBB29B0021002800A9
:103510009B58D9E7F8C60308F8B505000E0000244B
:103520004F683F0ABC420FDA3300A20008339958B3
:103530002800FFF7BFFF6B68002B06D00234A40001
:103540002800A159FDF7A2F8F8BD0134EAE710B54B
:103550000400FFF7E1FFA36A22219C331B68606A25
:10356000984710BDF8B505000C004E68360AB70044
:10357000CF19BC4207D1AB6A3100A033686A002280
:103580001B689847F8BDA1682800FFF793FF043433
:10359000EFE7F0B505000C001700032685B0019396
:1035A00000212000FDF7A3F9002807D0002F0DD13E
:1035B000AB6A01999B6E686A984707E00121200079
:1035C000FDF795F9002803D0002FF1D105B0F0BD2B
:1035D000002C44D0344242D163681A0A0292FF227E
:1035E00013401E2B2DD1002F2FD10026EB68039303
:1035F0000133EB60029B013BB3420CDC0299019B5F
:103600000131890009593A002800FFF7C2FFAB6A6F
:1036100003999B6ACFE721000122B00008310958C5
:10362000039B28007A40FFF7B4FF0136E2E7A16868
:103630003A002800019BFFF7ACFF0434B442F6D1F6
:10364000C4E71F2B05D1002FCFD1029B9E00361956
:10365000F4E7202B03D11F3BA4685F40A0E72100C3
:103660002800FFF727FFAB6A3900DB6E019A686A12
:103670009847ABE710B504008968FFF71BFFA36A02
:10368000606ADB6D984710BD70B58D680400002D31
:1036900006D12900836AC8331B68606A984770BDE9
:1036A000AB070FD16B68DBB25E2B0BD1A968FFF7BC
:1036B00001FFE9682000FFF7FDFEA36A0221C8337D
:1036C0001B68EAE729002000FFF7F4FEA36A012146
:1036D000C8331B68E1E70000F822F8B5174B520029
:1036E0009F5804000D00002F27D1C668F03A731CC4
:1036F000C36089683300FF3AFFF74BFFA36A1F21BD
:1037000001225B69606A9847E96800290AD02000B5
:10371000FFF7D0FEA36A3A00BC331D6801213B00CD
:10372000606AA847A36A0121C8331B68606A98478A
:10373000A36A31009B6A606A9847F8BDB402002012
:10374000F0B50D00C36887B001930133C360040076
:103750000021A868FDF7CBF8021E21D1E768200000
:103760007B1CA968E3603B00FFF713FF2000E968BA
:10377000FFF7A0FE0121A868FDF7B9F800281ED1C7
:103780002B69002B02D16B69002B04D0A36A01992D
:103790009B6E606A9847A36A39009B6A606A984783
:1037A0002800712105AA1030FFF72EFE0026039095
:1037B000039B9E420AD120006969FFF77BFEA36A42
:1037C00001999B6A606A984707B0F0BD059BB200FB
:1037D000D7580021B868FDF78AF8021E1DD1E368AA
:1037E000200002930133B968E360029BFFF7D1FE2A
:1037F0002000F968FFF75EFE0121B868FDF777F851
:10380000A36A626A0028DAD110009B6E019998477A
:10381000A36A02999B6A606A98470136C8E7F0B5C7
:103820000D00436985B00393C668438B771C0293F0
:10383000B31CC360038B04008682C78243830021CC
:10384000A868FDF754F8002822D1E368012101930C
:103850000133A868E360FDF74AF8002804D1A36AA1
:1038600039009B6E606A9847A36A01999B6A606AF7
:1038700098472000E968FFF71DFEA36A39009B6A9C
:10388000606A984701222000019BA968FFF781FE2A
:10389000039B20006361029B29696383FFF70AFE93
:1038A000A36A31009B6A606A984705B0F0BDF7B51E
:1038B00004000E00C568CF686B1C0193AB1C00228E
:1038C000B968C3602B00FFF764FEB1682000FFF702
:1038D000F1FDA36A691C606A9B6E9847A36A290080
:1038E000606A9B6A98470121A36A606A9B684942A3
:1038F0009847F9682000FFF7DDFDA36A01999B6AEC
:10390000606A9847F7BDF7B54A680E00D3B21E3B10
:1039100059424B4104000025C768DBB201937B1C70
:10392000C360130A0093009B9D4205DBA36A390024
:103930009B6A606A9847F7BD3300AA00083399581C
:103940002000FFF7B7FD009B01359D42EEDAA36A28
:103950003A001B6F0199606A9847E4E710B50400CC
:103960008968FFF7A7FDA36A032198331B68606A83
:10397000984710BDF7B54E680D0089680400FFF741
:1039800099FD0023360A0093032E03D9E3680093C0
:103990000133E36001270C3501957B1C9E4221DC3D
:1039A000032E1ED9E568606A6B1CE360A36A2900D8
:1039B0009B6E9847A36A00999B6A606A9847A36ABE
:1039C00001219B68606A9847A36A606A1B6E9847EA
:1039D000A36A606ADB6D9847A36A29009B6A606AE4
:1039E0009847F7BD019B200059680237FFF762FD39
:1039F000B74207DAA36A606A5B6D9847A36A606A98
:103A00005B6E98470F22019B606A1968A36A0A409F
:103A10009C331B680A2A13D10909CAB20621252A38
:103A200001D0343AD1B29847B74205DAA36A0021EF
:103A30001B6F009A606A9847019B08330193ACE7BB
:103A4000FF254A682A40852A01D13221EBE78A689E
:103A50000721002AE7D03321E5E7F7B54E680D00CE
:103A600033000D3BDBB28968040001930127FFF7A7
:103A700021FD360AB74200DBF7BD2B00BA00083340
:103A800099582000FFF716FDA36A01999C331B6823
:103A9000606A98470137EDE7F8B54F680C00896810
:103AA00005000026FFF706FD3F0A0C340236B74238
:103AB00000DCF8BD61682800FFF7FCFC2168AB6AF8
:103AC000090924399C331B68686AC9B298470834CD
:103AD000ECE770B50D00C9680400FFF7EBFCAB68BC
:103AE00002211B09DBB2332B01D03F3BD9B2A36AC1
:103AF000606A98331B68984770BD70B543780400BE
:103B00001500CE68012B06D1036A0A001B8B290021
:103B1000FDF772F970610023200071691A00FCF74B
:103B200007FE2000F168FFF7C5FC062D05D1A36A4A
:103B3000002188331B68606A9847A36A0121BC335F
:103B40001D680023606A1A00A84770BD896810B517
:103B5000002906D1836A0A00A0331B68406A98478F
:103B600010BD4B681B0A022B0CD1CB68002B09D06F
:103B70009A0707D15B68DBB2AC2B03D10622FFF7B3
:103B8000BCFFEDE7FFF7EEFCEAE770B58D680400D7
:103B9000002D07D101222900836AA0331B68606AC7
:103BA000984718E00322154221D16B68FF211800C5
:103BB000084092281BD11B0A022B0DD1EB68002B69
:103BC0000AD0134208D15B680B40AC2B04D129000A
:103BD0002000FFF792FF70BD29002000FFF79CFC3A
:103BE000A36A6968A03301221B68090AD7E7290084
:103BF0002000FFF75FFC0122A36A1100A0331B68BD
:103C0000CDE710B504008968FFF754FCA36A0021D2
:103C1000DB6C606A984710BD4B6870B5DBB204007E
:103C20000D00342B11D18968FFF744FCED68AD68B5
:103C3000002D10D1A36A0F211B6B606A9847A36AFD
:103C40000422A03302211B6819E0836A0F211B6B39
:103C5000406A9847EBE70326354225D16B68DBB213
:103C60009A2B0FD1A36A0F211B6B606A9847A96832
:103C7000002910D10422A36A0231A0331B68606AB4
:103C8000984770BD9B2B0FD1A9682000FFF712FC4D
:103C9000EB689968ECE72000FFF70CFCA36A0422AC
:103CA000A03331001B68EAE729002000FFF702FC7F
:103CB000C5E770B50D000400C968FFF7FBFBA968F4
:103CC0002000FFF7F7FB70BDF8B544680F00251E14
:103CD00005D1F8BD042BFCD101330370F9E72800AE
:103CE0006D68002DF5D07E683100FFF7A1FB00283C
:103CF000F5D00378043B022BEBD806253D7000225B
:103D000031002000FFF7A4FB0378002BE2D10570FF
:103D10006468F4E7436870B50D0004001100002BDF
:103D200007D1044809F06EF8290060602000FCF714
:103D3000ADFC70BD04CD0308F7B5032704000D00EA
:103D4000160039420DD00F230B40022B15D1090963
:103D50009E43012E02D0FCF70DFEF7BDFFF799FB45
:103D6000FBE74968FF200B0003402D2B00D17FE0CB
:103D700009D8062B0CD02C2B13D029002000504A38
:103D8000FFF7C8FFE9E72E2B00D187E09D2BF4D188
:103D9000002EF2D12A00090A0832200000F092F821
:103DA000DBE7022A03D02000A968FFF783FBEB685A
:103DB0000093002BE1D00323009A00991A40194286
:103DC000DBD14B680F00D9B28E2909D11B0A17002D
:103DD0000193022E1CD1019B009A01339B009F5836
:103DE0007B68DBB2312B29D1022E16D1A36A606A1F
:103DF0005B6E98470121A36ADB6C606A9847ACE769
:103E0000009BBA00083320009958FFF753FB013795
:103E1000019B013B9F42F3DBDDE72000B968FFF720
:103E200049FBA36A606A012E05D19B6D9847A36A7E
:103E30000021DB6CE1E70121DB6CDFE7322B9CD159
:103E4000A36A606A012E09D15B6D98470022A36ABC
:103E5000B9681B6D0909606A98477EE7022E01D197
:103E60001B6E9847B968A36A01221B6D0909F2E726
:103E7000AA68002A81D0002E00D07EE75168090A86
:103E8000022909D1D368002B06D0980704D15B68BA
:103E9000DBB2AC2B00D170E708327EE7002A00D0FD
:103EA0006BE7A9680A1E00D177E7394203D14B6856
:103EB0000340922BE2D02A00012108326DE7C04670
:103EC0002A3F0408F7B50126050017000C000091F1
:103ED00001927642002C16D1731C05D1AB6A009971
:103EE000AC331B68686A9847009B9C4228D0019AB3
:103EF000A300D1580022A64200D189682800FFF70C
:103F00001BFF0134F0E73968002912D0032319425E
:103F10000FD1FF224B681340222B0AD101360BD15F
:103F2000009B686A1E1BAB6A3100B0331B68621EBF
:103F30009847013C0437CDE72800024AFFF7EAFE24
:103F4000F7BDC046353F04080F22F0B58B688BB033
:103F5000049304000D00CE681340022B00D004E14E
:103F6000002E00D101E103273E4200D0FDE0FF21F9
:103F700073680B402C2B00D0F7E0B3681A40022A7C
:103F800000D0F2E01B097C2B00D0EEE0F268536811
:103F90000B40302B00D0E8E093685B3908AA09A8F1
:103FA0000993FFF731FA431E022B00D9DDE0089B8D
:103FB0001A680192012800D1CCE0022800D1C7E0A4
:103FC0009F68FA0700D4D0E07A1000D1CDE05B689A
:103FD0000093019B002B08D09B0706D1019B5B68D7
:103FE000DBB2A63B022B00D8BFE0009B002B08D021
:103FF0009B0706D1009B5B68DBB2A63B022B00D877
:10400000B3E02B69009A05936B69E56803936369D4
:104010006E1C0793638BA5820693AB1C0293238BC4
:10402000E68263832B1DE36001231A400292009A0B
:104030001A4203D111002000FFF73CFA2000019939
:10404000FFF738FAA36A606A9B6EE91C9847A36A77
:10405000A91C9B6A606A9847A36A606A5B6D98476F
:10406000002220000499FFF767FE20000599FFF762
:1040700021FAA36A31009B6A606A984739002000E0
:10408000FFF718FAA36A0E219C331B68606A9847F1
:10409000A36A606A9B6AE91C9847029AA36A606AED
:1040A000002A5BD19B6D9847A36A606A1B6E984794
:1040B000A36A00219C331B68606A002F00DA01218B
:1040C00000269847A36A0121DB6E606AAA1C984704
:1040D000079B6361069B6383039BB3421ED0A36A65
:1040E000606ADB6D9847029BB34203D1A36A606AA2
:1040F000DB6D984720000399FFF7DCF9E668606AFA
:10410000731CE360A36A31009B6E98470121029BF8
:10411000606A5940A36A01319B689847A36A2900E5
:104120009B6A606A9847A36A606ADB6D9847029B46
:10413000002B03D1A36A606ADB6D9847039B002BB9
:1041400004D03100A36A9B6A606A98470BB0F0BD47
:1041500003273CE7019B0190009346E75B6D98477E
:1041600020000099FFF7A6F9A2E76369E7680193C9
:10417000638B310000937B1CE382238B20006383DD
:104180001D4B3B43A382FB1CE360FFF793F9A36A3B
:10419000012188331B68606A9847A36A606A9B6A3A
:1041A000791C9847A36A606A8C331B68B91C9847CE
:1041B00000222000A968FFF7BFFD20002969FFF752
:1041C00079F9A36A606A9B6E791C9847A36AB91C47
:1041D0009B6A606A9847A36A606A90331B68984735
:1041E000019B69696361009B20006383FFF762F9AB
:1041F000A36A39009B6AA7E70080FFFFF0B585B08E
:104200000400160001910293002904D10299FFF7DE
:1042100051F905B0F0BDC7687B1CC3601568002D5F
:104220002AD003232A001A4003921D4224D16B682E
:10423000DBB27B2B20D1A968FFF73CF939002000C5
:10424000039AFCF735FA2000039AE968FFF774FD3A
:104250000199321D2000029B0139FFF7CFFFA36AAD
:104260003900DB6F606A984720000321FCF718FAD9
:104270002000FCF72DFACCE729002000FFF71AF9FF
:10428000200000223900FCF713FAA36A606ADB6D94
:104290009847DDE737B5050008000C0001AA7A2130
:1042A0000830FFF7B1F8E3680100019A2800FFF732
:1042B000A5FF37BDF0B587B0040017000291039346
:1042C000002904D10399FFF7F5F807B0F0BDC668DF
:1042D000731C0193B31C0493F31C0093331DC36040
:1042E0001568002D00D1CEE003232A001A40059264
:1042F0001D4200D0C7E06B68DBB27B2B00D0C2E070
:10430000A968FFF7D7F8A36A606A5B6D9847200039
:104310006549FCF7C3FA2000059AE968FFF70CFD30
:10432000022231002000FCF7C3F9A36A606A03216E
:104330009B68984702993A1D2000039B0139FFF7BB
:10434000B9FF0321A36A606A9B6849429847A36A40
:10435000320004330199DD6F606AB31CA847A36A79
:10436000606A5B6D9847A36A606A5B6E9847A36A50
:10437000606A1B6E9847A36A00224C49606A5B6CB6
:104380009847A36A606A5B6E9847A36A606A5B6E2F
:104390009847A36A606A5B6D9847A36A00220A2166
:1043A000606A1B6D9847A36A606A1B6E9847A36A90
:1043B000606A0F211B6B9847A36A0321C0331D68F5
:1043C0000023606A1A00A8472000FCF74FFAA36A8E
:1043D000009A0021606ADB6E9847A36A606ADB6D11
:1043E0009847A36A606A0F211B6B9847A36A0099DC
:1043F000606A9B6E9847A36A606A02219B6898472F
:10440000A36A0499606A9B6A9847A36A606A5B6EB4
:104410009847A36A606A5B6E9847A36A0199606ACD
:104420009B6A9847A36A0022606A5B6C1F499847A1
:10443000A36A0F21606A1B6B9847A36A606A5B6D71
:104440009847A36A606A5B6D9847A36A0321C033EB
:104450001D680023606A1A00A8472000FCF706FACE
:10446000A36A606ADB6D98470121A36A606A9B6852
:1044700049429847A36A606A9B6A0099984720005E
:10448000FCF726F921E729002000FFF713F8A36ABB
:10449000606A5B6D984720000349FCF7FFF9A36A47
:1044A000606ADB6D98473BE76E0300006F03000016
:1044B000F7B5CD6804000E00002D2DD10378002B38
:1044C00018D0036A1D78002D14D1DF218900FEF772
:1044D000E0FFB1682000FEF7EDFFA36A2A00BC33BD
:1044E0001E6801212B00606AB047A36A606ADB6D19
:1044F000984710E0B1688B0707D00F230B40022BC1
:1045000009D12000FEF7D6FFEFE70029F9D04B686C
:10451000DBB23A2BF5D1F7BD03210D4200D0B6E056
:104520006B68DAB25B2A10D1ED68002D49D1006AC0
:104530000378072BEFD1B16808330B40022BEAD187
:104540000909573AFEF784FFE5E7562A13D1553A91
:10455000B168FFF7F1FB2000E968FEF7ABFFA9683F
:10456000A36A09093E399C331B68606AC9B298473F
:104570000222B16887E0572A25D11B0A5F1E01334A
:104580009B005959FEF796FF002F03DDA36A606A6E
:104590005B6D9847B16800222000FFF7CDFB002635
:1045A000BE42B8DA0136BE4203DAA36A606A5B6DC6
:1045B0009847291DB30000222000C958FFF7BCFB13
:1045C000EEE70D4263D16B68FF2219001140062906
:1045D0005DD1B768002F5AD003390F4257D17868A0
:1045E00001001140062952D1010A01911B0A8B4298
:1045F0004DD10B00023B012B49D8BB68002B06D0E4
:1046000003210B4203D15B681340222B3FD0FB6890
:10461000002B05D09A0703D15B68DBB2222B36D082
:10462000019B022B08D03B69002B05D09A0703D1D0
:104630005B68DBB2222B2AD02000A968FEF73AFF84
:104640002000E968FEF736FF019B032B07D120000D
:104650002969FEF72FFFA36A606A5B6E9847A36A19
:10466000606A1B6E984700222000B968FFF764FB60
:1046700000222000F968FFF75FFB019B032B00D0AD
:1046800049E7002239692000FFF756FB43E729007C
:104690002000FEF70FFF00226BE7F7B504000D00C6
:1046A000C6681F00731C0193B31CC360836A31008A
:1046B0009B6A406A00929847A36A606A8C331B68C1
:1046C000711C9847A96800222000FFF735FB2D696F
:1046D000002D2BD120000099FEF7ECFE236A606AC2
:1046E0001978A36A06291BD1CC331B682900984787
:1046F00020000121FBF7D4FFA36A606ADB6D9847B5
:10470000A36A3100606A9B6E9847A36A0199606A48
:104710009B6A9847A36A606A90331B689847F7BD05
:10472000BA00A8331B6805329847E9E7FF226B6897
:104730001340AD2B07D1A968330000222000FEF7FB
:1047400028FFED68C4E72000E968FEF7B3FEA36A1E
:10475000606A883301211B68984729002000009A6D
:104760007B1CFFF79AFFCBE70F2370B50B400400CB
:10477000022B14D04868C0B2492809D0483808280C
:1047800018D82FF089FE0817071717171705070005
:104790000123A37070BD8E680D69002D0DD1A37823
:1047A000002BF7D1638A002BF4D020001C4AFFF7BE
:1047B000B1FAEFE78E68CD68EFE7A378002B27D03A
:1047C000238A01339BB22382012B0FD1618AA36A12
:1047D000606A002919D0A03300221B689847A36A99
:1047E0000222A03300211B68606A9847290020003C
:1047F000FEF760FEA36A606A9B6B31099847A36A63
:10480000606AA4331B689847C4E71B6C9847E6E7C7
:10481000638A2900013320006382FEF74BFEB9E76B
:104820003C3F04080F23F7B50B4005000C00022B9A
:1048300003D10909FCF78EF8F7BD002965D00327DD
:10484000394262D1FF224B6813402C2B3BD189683F
:10485000FEF730FEE668002E57D0310039403E4268
:1048600053D1FF207268330010408E280AD10F0008
:10487000130A0193019B013BBB4211DC019B0133F5
:104880009B009B595A68D2B2312A12D128009968EC
:10489000FEF710FEAB6A0221DB6C686A9847CBE733
:1048A0003300BA00083328009958FEF703FE013799
:1048B000E0E7322A29D19968AB6A686A1B6D090959
:1048C000303A9847B8E72D2B1FD18C68002C1CD0AC
:1048D00062682C3B120A022A0AD1E268002A07D039
:1048E0003A4205D15368FF221340AC2B0DD001236F
:1048F00062685E1C013B120A9A429DD9B300E158DE
:104900002800FFF78FFF3300F2E721002800024A5A
:10491000FFF700FA90E7C0465A3F04084B6870B5AD
:10492000DBB20400092B10D1858A094B9D4203D1CB
:104930002000084AFFF7EEF9638B228B2900D21A78
:10494000A36A606A5B6F984770BDC58AEDE7C04691
:10495000FFFF0000643F0408F8B5036A04001B78F9
:10496000072B03D01B4AFFF7D5F9F8BD8D68002D42
:104970000AD1836A0F211B6B406A9847A36A606A59
:10498000C4331B689847F0E703232A001A401D42EE
:104990001ED16B68DBB21B2B1AD1C668EF68731C83
:1049A000C360B9683300FEF7F4FDA9682000FEF784
:1049B00081FDA36A606AC4331B689847A36A31000B
:1049C0009B6A606A9847F9682000FEF773FDD5E797
:1049D0002900F9E77D3F04080F23F0B58E68040035
:1049E0000D0085B033400A2B0BD000218E4216D02B
:1049F0000323310019401E422ED17368DBB2652BB0
:104A00001CD103960026652102AA03A8FEF7FCFC30
:104A10000021029B80003F4AC018834214D13E4BC4
:104A2000EA689A4236D1236A1F78002F16D02900EF
:104A300020003A4AFFF76EF905B0F0BD622BEED1C7
:104A4000B3680393F668DEE71F68974202D101312D
:104A50000433E2E70331FBE70021E0E7A36A606A81
:104A60005B6B9847A36A606A05219B6B9847A36AB2
:104A70003A00A0331B68606A01219847310020008A
:104A800003AAFCF7A0FDA36A02223900DB6A606A70
:104A90009847D1E7A36A606A5B6B984728006A2150
:104AA0000C3003AAFEF7B0FC00270500A36A606A79
:104AB000AF4211D1A033002229001B689847310072
:104AC000200002AAFCF77FFD0026A36A606AAE42BE
:104AD0000BD1DB6D9847AFE7039AB9008A589B6BFF
:104AE0009168013709099847E0E7039AB1008F58A8
:104AF000DB6ABA6812090192019901229847F968A4
:104B0000002905D101992000FBF734FF0136DCE7CD
:104B10000909F8E7CA0500001A040000893F0408E3
:104B200070B5140005000E001278002B18D0002A72
:104B300007D0032A05D0134A31002800FFF7EAF80E
:104B40000DE0032323702B6A616818005B68002B5B
:104B5000FBD1FEF76DFC002801D00323037070BD6C
:104B6000002A0AD1012323702100006AFFF7ACF864
:104B70002378054A012BF2D1DEE7062AEFD0034A5B
:104B8000DAE7C0469B3F0408A83F0408B53F040885
:104B9000F0B5437804000D0085B0012B11D14B68AE
:104BA000DBB21A00103A51424A41D2B20192102BA4
:104BB00009D0036A1B78002B05D129000F4AFFF7A3
:104BC000A9F805B0F0BD28006D2103AA0830FEF752
:104BD0001BFC00260700B742F3D0039BB200D1585C
:104BE000206A00220909FEF733FC29000200019B1C
:104BF0002000FFF795FF0136EDE7C046BC3F0408F3
:104C0000F0B504000F001E00C56887B06B1C05934B
:104C1000AB1CC360290004920122FBF749FD390057
:104C20002000FEF747FCA36A002294331B68606AE9
:104C3000691C9847A36A29009B6A606A9847A36A1F
:104C4000606AD0331B689847E368370001930133EB
:104C5000E36000230093009B049A934216DB20003C
:104C6000FBF736FDA36A606AD4331B689847A36AD2
:104C700005999B6A606A984720000C99FEF71AFC18
:104C8000A36A01999B6A606A98475DE03B68039359
:104C9000E36802930133E360039B9E68009B01334A
:104CA0000093002E52D1049B009A934244D10025D8
:104CB000A36A606ADB6D98472E00039B2000D968C9
:104CC000FEF7F8FB002D24D0A36A0F211B6B606A4E
:104CD0009847A36A31009B6A606A9847A36A0121DA
:104CE0009B68606A9847A36A0F211B6B606A9847AC
:104CF00029002000FBF73EFE29002000FBF72AFEDA
:104D00000121A36A606A9B68494298472000FBF72B
:104D1000DFFCA36A012294331B680199606A9847FB
:104D2000A36A02999B6A606A9847A36A01219B68FB
:104D3000606A984704378EE720001E4A3968FEF7FC
:104D4000E9FF2000FBF7C4FC07B0F0BD03250323F7
:104D500035401E422CD1FF21736832000B40762B68
:104D600002D1D568B6682D09A36A606A5B6D984761
:104D700031002000FEF79EFBA36A08219C331B68CC
:104D8000606A9847A36A0021DB6E029A606A9847BE
:104D9000002D00D18BE729002000FBF7EBFDE66832
:104DA0000222731C31002000E360FBF781FC84E7E2
:104DB0000025D9E7CE3F0408F0B5C76885B0039356
:104DC0007B1C16000D0002223900C3600400FBF7B3
:104DD0006FFC002E2CD1A36A03219B68606A984760
:104DE00029002000FEF766FB0321A36A606A9B6826
:104DF00049429847A36A606A0F211B6B9847A36AD0
:104E00003900606A9B6A9847A36A606A9B680121BF
:104E1000984720000B99FEF74DFB0121A36A606AB9
:104E20009B68494298472000FBF752FC05B0F0BD53
:104E30000A9B3200009329002000039BFFF7E0FE4D
:104E4000D8E7F0B5CE68050073680C00DBB285B01A
:104E5000782B0AD10022B36800920193130089686D
:104E60002800FFF7A9FF05B0F0BD742B15D1300065
:104E7000772103AA0830FEF7C7FA37690200039BBF
:104E8000F068A168002F04D100902800FFF7B8FE59
:104E9000E9E7BC6800900194E2E7080003AA7721E3
:104EA0000C30FEF7B1FA002300930200039BA168C7
:104EB000EBE70000F0B58D6804006B6885B0DBB2ED
:104EC000032B09D12900FBF7E2FF0123AA69D18A4C
:104ED0000B43D38205B0F0BD0121026AD28A0A4297
:104EE00004D129005A4AFEF715FFF3E7162B00D02C
:104EF000A0E0C668E968331DC360FEF7DBFADC2179
:104F0000A36A606A00225B6C89009847A36A606AA2
:104F1000C0331F6800231A001900B8476369E768A7
:104F20000093638B606A0193BB1CE3607B1CE3828C
:104F3000238B791C6383A36AA7829B6A984701220B
:104F40002000B118FBF7B4FBA36A606A5B6D984759
:104F500020004049FBF7A2FC2000A9680022FEF7D0
:104F6000EBFEA36A00229433606AB11C1B68984769
:104F7000A36A711C606A9B6A9847A36A606AD0330F
:104F80001B689847A36A606A5B6D9847A36A012211
:104F9000606A5B6930499847A36A606A9C3308215C
:104FA0001B689847A36AF21C0021606ADB6E984771
:104FB000A36A606ADB6D9847A36A012294333100CB
:104FC000606A1B689847A36A606AF11C9B6A9847ED
:104FD000A36A01219B68606A98472000FBF778FB71
:104FE000A36A606AD4331B689847A36A606A9B6AA5
:104FF000B11C984720002969FEF75CFAA36A606A31
:10500000791C9B6E9847009B31006361019B606A2D
:105010006383A36A9B6A984720006969FEF74AFA8E
:10502000A36A606A39009B6A9847A36A606ADB6D6D
:1050300098474FE7280003AA7A210830FEF7E4F9E1
:10504000EB680100039A2000FFF734F942E7C046FD
:10505000E63F040872030000150300000F2373B538
:105060000B4004000D001600022B02D01D4AFEF773
:1050700051FE31002000FEF71DFAA36A606A5B6DE5
:10508000984763782E09012B10D1226A1378033BCD
:10509000032B0BD85068310002F012FD03001A7880
:1050A000206A032A07D13100FEF7D2F9310020002F
:1050B000FBF760FC73BD00223100FEF7C9F9236ADB
:1050C00002005B6859684B424B41DBB2002904D0B7
:1050D0000178012901D10021017029002000FFF78A
:1050E0001FFDE3E72A3F040810B5CA688968FFF787
:1050F000B5FF10BD10B5024AFEF70CFE10BDC0464C
:10510000FD3F0408F0B589B0059104920400A42184
:1051100007AA05A81E00FEF777F900231F000390D9
:10512000019302930093019B039A934213D1002FA2
:1051300004D0A36A02995B6B606A9847049AA36AD9
:10514000606A002A00D17BE0C0331C6831003B005C
:10515000009AA04715E0019A079B9200D558002DB0
:105160005FD003231D425CD1FF216B680B40A62B4F
:105170001ED1A43B1F4206D0324A29002000FEF770
:10518000C9FD09B0F0BD019B1D2B01D92E4AF4E7E2
:1051900001273B00019A20009340029AA9681A4314
:1051A0000292FEF787F9F619019B01330193BAE7E2
:1051B000A72B0DD1A53B1F43A36A606A1B6C9847C0
:1051C000A9682000FEF776F9009B01330093EBE716
:1051D000A82B26D1EA68002A0FD0A53B1A420CD191
:1051E00053680B40AA2B06D120009268A968FFF7EC
:1051F00035FF0136D8E7AC2B0DD00F23A9680B4043
:10520000022B01D0114AB8E7A36A09099B6B606AB7
:105210009847E968D5E7062229002000FEF76DFCD3
:10522000E7E702231F4201D0094AA6E7009B002BB3
:1052300001D0084AA1E729002000FEF73BF9D8E792
:10524000BC3382E70A400408114004081D400408EA
:105250002A4004083140040870B50D00417804006C
:105260001300012903D12A00FBF7C6FD6861A36A78
:10527000606A9B6C984700236E691A003100200019
:10528000FBF756FAA36AB18A9B6B606A9847E96894
:10529000002909D003230A001A40194204D14B689F
:1052A000DBB2A32B00D11100200002230022FFF764
:1052B00029FFB08A70BD0000F0B50400080089B075
:1052C00005910830422106AAFEF79EF80027236ABE
:1052D00003901B8B02970093039B9F420BD1059B6E
:1052E000D9684B68DBB2032B51D12000009AFBF741
:1052F000B9FD050059E0069BBA00D3586C2118008F
:1053000007AA08300493FEF77FF8079E050031686E
:105310000B09732B0FD02000FEF7CCF8012301936B
:10532000019BAB4227D3049BD96800291FD02000E2
:10533000FEF7C0F81BE0022805D02000284AFEF73F
:10534000E9FC009D0FE071680B09412B11D0254A43
:10535000934208D0244A0325934204D0B13AFF3A3D
:1053600001359342E9D1029B009501330293013745
:10537000B2E70125F7E7019B00229B00F158A36AE1
:10538000606A1B6D09099847019B0133C7E7442BED
:1053900017D18F68009A39002000FBF763FD0123C5
:1053A0000500BA69D18A0B43D3820026039B029A77
:1053B0009B1AB3420AD829002000FBF7DBFA09B098
:1053C000F0BD2000009AFFF747FF92E7A36A012192
:1053D000BC331F680023606A1A00B8470136E5E74E
:1053E000384004088C0400004C05000010B5036A26
:1053F00004001A8BFFF730FF01002000FBF7BAFA18
:1054000010BD002310B51A008968FFF77BFE10BDA0
:10541000F0B58D6887B004000292002D09D1002AF2
:1054200026D002222900836AA0331B68606A98474D
:105430001EE003272B003B4001933D4200D08FE04C
:10544000FF266B683340372B14D1029B002B06D00C
:10545000836A0222A03301211B68406A984720001A
:105460002900FEF727F8A36A606AA4331B689847EF
:1054700007B0F0BD9F2B73D1E86843683340A12B80
:105480005ED1A221083005AAFDF7BEFFA9680390EE
:10549000002926D0394224D14B683340372B20D104
:1054A000029B002B06D0A36A411CA03302221B687A
:1054B000606A98472000A968FDF7FCFFA36A606A4C
:1054C000A4331B6898470127019B039A93420DD18F
:1054D000002FCDD11900A36A0322A0331B6801312C
:1054E000A4E72000FDF7E6FF0027EDE7019A059B02
:1054F0009200D1580E1E09D003230026194205D16F
:105500004E68FC331E40373E73425E412000FDF77B
:10551000D1FF002F10D0002E05D1164A29002000FF
:10552000FEF7F8FBA4E7A36A606AA4331B689847F8
:10553000019B01330193C7E7002EF9D00E4AEDE736
:10554000AB68002B06D03B4204D15B680422334099
:10555000372B00D0052229002000FEF7CEFA87E77E
:1055600029002000FDF7A6FFA36A0322A033012132
:105570001B685BE75040040861400408F7B50D0064
:1055800089680400FDF796FFEE68002E2DD0736841
:10559000DAB28E2A2AD02E0001230C3600930F2275
:1055A000216AAB68097800251A40072900D077E006
:1055B000022A4DD11A099A2A00D073E03268536842
:1055C000DBB2302B44D19368AB4241D10331200090
:1055D000FDF75FFF0121226AD36A128D002A09D1EB
:1055E0002000464A3168FEF795FBF7BD1B0A009381
:1055F0000836D4E75878084210D020005968FDF7E3
:1056000048FF009AA36A606A022A0AD8BC331D6860
:10561000002302211A00A847012519E0013A0833A6
:10562000DCE7FF2771684A683A40322AEED1B56854
:105630006A683A40302AE9D189685B6C09092F3AD7
:105640009847A968002301222000FFF75BFD03258E
:10565000009BAB42C9D96B1C009801936A1CAB003C
:10566000F158824245D2FF204A680240322A40D196
:10567000F3185F687B680340302B3AD18968A36ACE
:1056800000225B6C606A0909984700230122200010
:10569000B968FFF737FD019D0135D9E70025D7E748
:1056A000022AD5D1164A00251B099342D0D1316870
:1056B000673A4B68FF3A1340302BC9D18B68AB4235
:1056C000C6D003211D000D400B42E7D15B6813409B
:1056D0002F2BBDD1A36A2A00BC3329001F68606A42
:1056E0002B00B84733682A0020009968FFF790FE26
:1056F00092E72000FDF7DEFE0195CCE76C40040840
:105700006502000010B50122FFF782FE10BD000007
:10571000036A70B51B780400072B05D0022B03D059
:10572000144AFEF7F7FA70BD8D68002D0FD1A36AF9
:105730000F211B6B606A9847A36A606ACC33002113
:105740001B68984701212000FAF7AAFFEBE7AB0797
:105750000BD16B68DBB2AF2B07D12000A968FDF736
:10576000A9FE2000FBF782F8DDE729002000FDF705
:10577000A1FEE1E77F400408036A10B51B7804002E
:10578000072B05D0022B03D0054AFEF7C3FA10BD44
:105790002000FFF7F3FE2000FBF768F8F7E7C046AC
:1057A0008A400408F0B50D008DB0016200214270FE
:1057B0002B78009204008E4AC160072B2DD1009BEC
:1057C000012B05D0036B021D1B680099C06A984726
:1057D0006378EF68032B10D1380046210BAA0C30F8
:1057E000FDF712FE236B01009B680B9AE06A984755
:1057F00063686883002B00D0C3E03969002948D072
:105800000F230B40022B40D10B09752B44D009D834
:105810003E2B43D05E2B3CD0764A2000FEF77AFA2E
:105820000DB0F0BD0320744A02909342F4D17B691D
:10583000192108AA09A80993FDF7E6FD002306909F
:105840000393039B069A93422AD16378012B18D9BC
:10585000236B02995B68E06A98476378042B10D148
:10586000E36A0520D968236A1A695B8B51600021BD
:1058700013739160029BD1681B02C9B20B43508025
:10588000D3606368002B7CD1CAE720005B4AFEF737
:1058900041FA02230293CAE70023FBE70123F9E759
:1058A000039B089A9B00D318FF221E680493736819
:1058B0001340082B02D1039B0133C1E7052B02D013
:1058C0004F4A3100A9E7B368002BF9D003210B42FE
:1058D000F6D1F268002AF3D1FF205A6802402C2A40
:1058E000EED19D681D3A2A40022AE9D1DB68019376
:1058F000002BE5D00B42E3D15B680340302BDFD1B6
:1059000001980AAAA1310830FDF77EFD3D4B020047
:105910002D099D421BD1012805D10F210A9A136838
:105920000B40022B01D0384ACBE7E1684B1CE36007
:10593000009B012B21D01268236BE06ADB681209FF
:105940009847002819D1314A049B196865E7304B04
:105950009D4219D1012803D10A9B1B68034201D142
:105960002C4AAEE7009A012A07D0E26A5B10506821
:10597000591E09185B420B4053606368002B9AD094
:10598000019F3B68A3604BE7234B9D4225D1012833
:1059900003D90A9D2B68D90701D4204A91E70099C1
:1059A0000129EAD05B1082002E1D0793AD183068E4
:1059B0000BA9FDF70FFD002801D1194AC4E7E36ADE
:1059C0000B9805930BF020F904360200079905980F
:1059D00002F0A8F8AE42EAD1CFE7009B012BCCD071
:1059E000236B29001E69E06A0A9BB047C5E7C046E1
:1059F00095400408AB4004083A050000AF40040895
:105A0000B740040851040000C5400408D140040810
:105A100092030000D5400408D7030000E1400408C9
:105A2000F340040870B5050000290FD00F230B4088
:105A3000022B0DD10C09200006F0EAFD002806DA41
:105A400022000549054808F06FFA6860002070BD23
:105A5000034AFEF75FF9F9E7FE400408D4C60308DD
:105A6000034104080023F7B5C360030034334270D8
:105A7000016204000D0017001A70032A03D1C08EC2
:105A8000002828D1A0630026A36A39002A001B68D9
:105A9000606AE686984706212000FAF701FE6778DB
:105AA000012F01D16E84AE84EE68002E17D0B307AB
:105AB00015D17368DBB23F2B11D12000B168FDF71F
:105AC000F9FCA36A606AC4331B689847A36A606ADA
:105AD0005B689847FEBD8000FBF780F9D2E7287825
